{
  "contractName": "Reservation",
  "abi": [
    {
      "inputs": [],
      "payable": false,
      "stateMutability": "nonpayable",
      "type": "constructor"
    },
    {
      "anonymous": false,
      "inputs": [
        {
          "indexed": true,
          "internalType": "uint256",
          "name": "_restaurantId",
          "type": "uint256"
        }
      ],
      "name": "addedEvent",
      "type": "event"
    },
    {
      "anonymous": false,
      "inputs": [
        {
          "indexed": true,
          "internalType": "uint256",
          "name": "_restaurantId",
          "type": "uint256"
        }
      ],
      "name": "bookedEvent",
      "type": "event"
    },
    {
      "constant": true,
      "inputs": [
        {
          "internalType": "address",
          "name": "",
          "type": "address"
        }
      ],
      "name": "checking",
      "outputs": [
        {
          "internalType": "uint256",
          "name": "",
          "type": "uint256"
        }
      ],
      "payable": false,
      "stateMutability": "view",
      "type": "function"
    },
    {
      "constant": true,
      "inputs": [],
      "name": "closesTime",
      "outputs": [
        {
          "internalType": "uint256",
          "name": "",
          "type": "uint256"
        }
      ],
      "payable": false,
      "stateMutability": "view",
      "type": "function"
    },
    {
      "constant": true,
      "inputs": [],
      "name": "opensTime",
      "outputs": [
        {
          "internalType": "uint256",
          "name": "",
          "type": "uint256"
        }
      ],
      "payable": false,
      "stateMutability": "view",
      "type": "function"
    },
    {
      "constant": true,
      "inputs": [
        {
          "internalType": "address",
          "name": "",
          "type": "address"
        }
      ],
      "name": "restaurantOwners",
      "outputs": [
        {
          "internalType": "uint256",
          "name": "",
          "type": "uint256"
        }
      ],
      "payable": false,
      "stateMutability": "view",
      "type": "function"
    },
    {
      "constant": true,
      "inputs": [
        {
          "internalType": "uint256",
          "name": "",
          "type": "uint256"
        }
      ],
      "name": "restaurants",
      "outputs": [
        {
          "internalType": "uint256",
          "name": "id",
          "type": "uint256"
        },
        {
          "internalType": "string",
          "name": "name",
          "type": "string"
        },
        {
          "internalType": "string",
          "name": "city",
          "type": "string"
        },
        {
          "internalType": "string",
          "name": "adress",
          "type": "string"
        },
        {
          "internalType": "string",
          "name": "opensAt",
          "type": "string"
        },
        {
          "internalType": "string",
          "name": "closesAt",
          "type": "string"
        },
        {
          "internalType": "uint256",
          "name": "totalSeats",
          "type": "uint256"
        },
        {
          "internalType": "uint256",
          "name": "guestCount",
          "type": "uint256"
        }
      ],
      "payable": false,
      "stateMutability": "view",
      "type": "function"
    },
    {
      "constant": true,
      "inputs": [],
      "name": "restaurantsCount",
      "outputs": [
        {
          "internalType": "uint256",
          "name": "",
          "type": "uint256"
        }
      ],
      "payable": false,
      "stateMutability": "view",
      "type": "function"
    },
    {
      "constant": true,
      "inputs": [
        {
          "internalType": "address",
          "name": "",
          "type": "address"
        }
      ],
      "name": "schecking",
      "outputs": [
        {
          "internalType": "string",
          "name": "",
          "type": "string"
        }
      ],
      "payable": false,
      "stateMutability": "view",
      "type": "function"
    },
    {
      "constant": true,
      "inputs": [
        {
          "internalType": "address",
          "name": "",
          "type": "address"
        }
      ],
      "name": "users",
      "outputs": [
        {
          "internalType": "bool",
          "name": "",
          "type": "bool"
        }
      ],
      "payable": false,
      "stateMutability": "view",
      "type": "function"
    },
    {
      "constant": false,
      "inputs": [
        {
          "internalType": "uint256",
          "name": "num",
          "type": "uint256"
        }
      ],
      "name": "checker",
      "outputs": [],
      "payable": false,
      "stateMutability": "nonpayable",
      "type": "function"
    },
    {
      "constant": false,
      "inputs": [
        {
          "internalType": "string",
          "name": "n",
          "type": "string"
        }
      ],
      "name": "stringChecker",
      "outputs": [],
      "payable": false,
      "stateMutability": "nonpayable",
      "type": "function"
    },
    {
      "constant": false,
      "inputs": [
        {
          "internalType": "string",
          "name": "_name",
          "type": "string"
        },
        {
          "internalType": "string",
          "name": "_city",
          "type": "string"
        },
        {
          "internalType": "string",
          "name": "_adress",
          "type": "string"
        },
        {
          "internalType": "string",
          "name": "_opensAt",
          "type": "string"
        },
        {
          "internalType": "string",
          "name": "_closesAt",
          "type": "string"
        },
        {
          "internalType": "uint256",
          "name": "_totalSeats",
          "type": "uint256"
        }
      ],
      "name": "addRestaurant",
      "outputs": [],
      "payable": false,
      "stateMutability": "nonpayable",
      "type": "function"
    },
    {
      "constant": false,
      "inputs": [
        {
          "internalType": "uint256",
          "name": "_restaurantId",
          "type": "uint256"
        },
        {
          "internalType": "string",
          "name": "_username",
          "type": "string"
        },
        {
          "internalType": "string",
          "name": "_useremail",
          "type": "string"
        },
        {
          "internalType": "uint256",
          "name": "_timeLimit",
          "type": "uint256"
        },
        {
          "internalType": "uint256",
          "name": "_startTime",
          "type": "uint256"
        },
        {
          "internalType": "uint256",
          "name": "_endTime",
          "type": "uint256"
        },
        {
          "internalType": "uint256",
          "name": "_guestCount",
          "type": "uint256"
        }
      ],
      "name": "book",
      "outputs": [],
      "payable": false,
      "stateMutability": "nonpayable",
      "type": "function"
    }
  ],
  "bytecode": "0x608060405234801561001057600080fd5b5061169e806100206000396000f3fe608060405234801561001057600080fd5b50600436106100b45760003560e01c8063be00356a11610071578063be00356a146105a9578063bfc8a33014610664578063c29a7dd014610721578063c85dd7281461073f578063ca82af3914610797578063f667e2b314610ab8576100b4565b806320a69418146100b957806334feec091461023d5780633a90ba1a1461029557806394e05b2c146102b3578063a87430ba146102e1578063ad5461d81461033d575b600080fd5b61023b600480360360e08110156100cf57600080fd5b8101908080359060200190929190803590602001906401000000008111156100f657600080fd5b82018360208201111561010857600080fd5b8035906020019184600183028401116401000000008311171561012a57600080fd5b91908080601f016020809104026020016040519081016040528093929190818152602001838380828437600081840152601f19601f8201169050808301925050505050505091929192908035906020019064010000000081111561018d57600080fd5b82018360208201111561019f57600080fd5b803590602001918460018302840111640100000000831117156101c157600080fd5b91908080601f016020809104026020016040519081016040528093929190818152602001838380828437600081840152601f19601f82011690508083019250505050505050919291929080359060200190929190803590602001909291908035906020019092919080359060200190929190505050610ad6565b005b61027f6004803603602081101561025357600080fd5b81019080803573ffffffffffffffffffffffffffffffffffffffff169060200190929190505050610d6f565b6040518082815260200191505060405180910390f35b61029d610d87565b6040518082815260200191505060405180910390f35b6102df600480360360208110156102c957600080fd5b8101908080359060200190929190505050610d8d565b005b610323600480360360208110156102f757600080fd5b81019080803573ffffffffffffffffffffffffffffffffffffffff169060200190929190505050610dd4565b604051808215151515815260200191505060405180910390f35b6103696004803603602081101561035357600080fd5b8101908080359060200190929190505050610df4565b60405180898152602001806020018060200180602001806020018060200188815260200187815260200186810386528d818151815260200191508051906020019080838360005b838110156103cb5780820151818401526020810190506103b0565b50505050905090810190601f1680156103f85780820380516001836020036101000a031916815260200191505b5086810385528c818151815260200191508051906020019080838360005b83811015610431578082015181840152602081019050610416565b50505050905090810190601f16801561045e5780820380516001836020036101000a031916815260200191505b5086810384528b818151815260200191508051906020019080838360005b8381101561049757808201518184015260208101905061047c565b50505050905090810190601f1680156104c45780820380516001836020036101000a031916815260200191505b5086810383528a818151815260200191508051906020019080838360005b838110156104fd5780820151818401526020810190506104e2565b50505050905090810190601f16801561052a5780820380516001836020036101000a031916815260200191505b50868103825289818151815260200191508051906020019080838360005b83811015610563578082015181840152602081019050610548565b50505050905090810190601f1680156105905780820380516001836020036101000a031916815260200191505b509d505050505050505050505050505060405180910390f35b610662600480360360208110156105bf57600080fd5b81019080803590602001906401000000008111156105dc57600080fd5b8201836020820111156105ee57600080fd5b8035906020019184600183028401116401000000008311171561061057600080fd5b91908080601f016020809104026020016040519081016040528093929190818152602001838380828437600081840152601f19601f820116905080830192505050505050509192919290505050611134565b005b6106a66004803603602081101561067a57600080fd5b81019080803573ffffffffffffffffffffffffffffffffffffffff16906020019092919050505061118b565b6040518080602001828103825283818151815260200191508051906020019080838360005b838110156106e65780820151818401526020810190506106cb565b50505050905090810190601f1680156107135780820380516001836020036101000a031916815260200191505b509250505060405180910390f35b61072961123b565b6040518082815260200191505060405180910390f35b6107816004803603602081101561075557600080fd5b81019080803573ffffffffffffffffffffffffffffffffffffffff169060200190929190505050611241565b6040518082815260200191505060405180910390f35b610ab6600480360360c08110156107ad57600080fd5b81019080803590602001906401000000008111156107ca57600080fd5b8201836020820111156107dc57600080fd5b803590602001918460018302840111640100000000831117156107fe57600080fd5b91908080601f016020809104026020016040519081016040528093929190818152602001838380828437600081840152601f19601f8201169050808301925050505050505091929192908035906020019064010000000081111561086157600080fd5b82018360208201111561087357600080fd5b8035906020019184600183028401116401000000008311171561089557600080fd5b91908080601f016020809104026020016040519081016040528093929190818152602001838380828437600081840152601f19601f820116905080830192505050505050509192919290803590602001906401000000008111156108f857600080fd5b82018360208201111561090a57600080fd5b8035906020019184600183028401116401000000008311171561092c57600080fd5b91908080601f016020809104026020016040519081016040528093929190818152602001838380828437600081840152601f19601f8201169050808301925050505050505091929192908035906020019064010000000081111561098f57600080fd5b8201836020820111156109a157600080fd5b803590602001918460018302840111640100000000831117156109c357600080fd5b91908080601f016020809104026020016040519081016040528093929190818152602001838380828437600081840152601f19601f82011690508083019250505050505050919291929080359060200190640100000000811115610a2657600080fd5b820183602082011115610a3857600080fd5b80359060200191846001830284011164010000000083111715610a5a57600080fd5b91908080601f016020809104026020016040519081016040528093929190818152602001838380828437600081840152601f19601f82011690508083019250505050505050919291929080359060200190929190505050611259565b005b610ac06114cb565b6040518082815260200191505060405180910390f35b610b8d600260008981526020019081526020016000206004018054600181600116156101000203166002900480601f016020809104026020016040519081016040528092919081815260200182805460018160011615610100020316600290048015610b835780601f10610b5857610100808354040283529160200191610b83565b820191906000526020600020905b815481529060010190602001808311610b6657829003601f168201915b50505050506114d1565b600681905550610c4a600260008981526020019081526020016000206005018054600181600116156101000203166002900480601f016020809104026020016040519081016040528092919081815260200182805460018160011615610100020316600290048015610c405780601f10610c1557610100808354040283529160200191610c40565b820191906000526020600020905b815481529060010190602001808311610c2357829003601f168201915b50505050506114d1565b6007819055508260065411158015610c6457506007548211155b610c6d57600080fd5b600087118015610c7f57506003548711155b610c8857600080fd5b600260008881526020019081526020016000206006015481108015610cad5750600081115b610cb657600080fd5b6040518060c00160405280878152602001868152602001858152602001848152602001838152602001828152505080600260008981526020019081526020016000206007018190555060026000888152602001908152602001600020600701546002600089815260200190815260200160002060060160008282540392505081905550867f107415d6c16a431a454b977572c089f586064f57b2bdbf629aaf756739cdcc4860405160405180910390a250505050505050565b60046020528060005260406000206000915090505481565b60065481565b80600460003373ffffffffffffffffffffffffffffffffffffffff1673ffffffffffffffffffffffffffffffffffffffff1681526020019081526020016000208190555050565b60006020528060005260406000206000915054906101000a900460ff1681565b6002602052806000526040600020600091509050806000015490806001018054600181600116156101000203166002900480601f016020809104026020016040519081016040528092919081815260200182805460018160011615610100020316600290048015610ea65780601f10610e7b57610100808354040283529160200191610ea6565b820191906000526020600020905b815481529060010190602001808311610e8957829003601f168201915b505050505090806002018054600181600116156101000203166002900480601f016020809104026020016040519081016040528092919081815260200182805460018160011615610100020316600290048015610f445780601f10610f1957610100808354040283529160200191610f44565b820191906000526020600020905b815481529060010190602001808311610f2757829003601f168201915b505050505090806003018054600181600116156101000203166002900480601f016020809104026020016040519081016040528092919081815260200182805460018160011615610100020316600290048015610fe25780601f10610fb757610100808354040283529160200191610fe2565b820191906000526020600020905b815481529060010190602001808311610fc557829003601f168201915b505050505090806004018054600181600116156101000203166002900480601f0160208091040260200160405190810160405280929190818152602001828054600181600116156101000203166002900480156110805780601f1061105557610100808354040283529160200191611080565b820191906000526020600020905b81548152906001019060200180831161106357829003601f168201915b505050505090806005018054600181600116156101000203166002900480601f01602080910402602001604051908101604052809291908181526020018280546001816001161561010002031660029004801561111e5780601f106110f35761010080835404028352916020019161111e565b820191906000526020600020905b81548152906001019060200180831161110157829003601f168201915b5050505050908060060154908060070154905088565b80600560003373ffffffffffffffffffffffffffffffffffffffff1673ffffffffffffffffffffffffffffffffffffffff1681526020019081526020016000209080519060200190611187929190611544565b5050565b60056020528060005260406000206000915090508054600181600116156101000203166002900480601f0160208091040260200160405190810160405280929190818152602001828054600181600116156101000203166002900480156112335780601f1061120857610100808354040283529160200191611233565b820191906000526020600020905b81548152906001019060200180831161121657829003601f168201915b505050505081565b60075481565b60016020528060005260406000206000915090505481565b6000600160003373ffffffffffffffffffffffffffffffffffffffff1673ffffffffffffffffffffffffffffffffffffffff16815260200190815260200160002054116112e9576000600160003373ffffffffffffffffffffffffffffffffffffffff1673ffffffffffffffffffffffffffffffffffffffff16815260200190815260200160002054101561132f565b600354600160003373ffffffffffffffffffffffffffffffffffffffff1673ffffffffffffffffffffffffffffffffffffffff1681526020019081526020016000205414155b61133857600080fd5b600360008154809291906001019190505550604051806101000160405280600354815260200187815260200186815260200185815260200184815260200183815260200182815260200160008152506002600060035481526020019081526020016000206000820151816000015560208201518160010190805190602001906113c29291906115c4565b5060408201518160020190805190602001906113df9291906115c4565b5060608201518160030190805190602001906113fc9291906115c4565b5060808201518160040190805190602001906114199291906115c4565b5060a08201518160050190805190602001906114369291906115c4565b5060c0820151816006015560e08201518160070155905050600354600160003373ffffffffffffffffffffffffffffffffffffffff1673ffffffffffffffffffffffffffffffffffffffff168152602001908152602001600020819055506003547fc58213ad9af08592f83f5ca8dc5898e0e38d397291558f0e033f2705b9c42e3660405160405180910390a2505050505050565b60035481565b600060608290506000809250600090505b600281101561153d5760008282815181106114f957fe5b602001015160f81c60f81b60f81c60ff1690506030811015801561151e575060398111155b1561152f5760308103600a85020193505b5080806001019150506114e2565b5050919050565b828054600181600116156101000203166002900490600052602060002090601f016020900481019282601f1061158557805160ff19168380011785556115b3565b828001600101855582156115b3579182015b828111156115b2578251825591602001919060010190611597565b5b5090506115c09190611644565b5090565b828054600181600116156101000203166002900490600052602060002090601f016020900481019282601f1061160557805160ff1916838001178555611633565b82800160010185558215611633579182015b82811115611632578251825591602001919060010190611617565b5b5090506116409190611644565b5090565b61166691905b8082111561166257600081600090555060010161164a565b5090565b9056fea265627a7a723158203c5853b750abf9e206b17d0b72bd809773022de6fe994d7180cd79f2b6258c6b64736f6c63430005100032",
  "source": "pragma solidity >=0.4.22 <0.8.0;\n\n\ncontract Reservation {\n    // Model a Restaurant\n    struct Restaurant {\n        uint id;\n        string name;\n        string city;\n        string adress;\n        string opensAt;\n        string closesAt;\n        uint totalSeats;\n        uint guestCount;\n    }\n\n    struct User {\n        string username;\n        string useremail;\n        uint timeLimit;\n        uint startTime;\n        uint endTime;\n        uint guestNumber;\n    }\n\n    // Store accounts that have booked today\n    mapping(address => bool) public users;\n\n    // Store accounts that have registered their restaurants\n    mapping(address => uint) public restaurantOwners;\n\n    // Fetch Restaurant\n    mapping(uint => Restaurant) public restaurants;\n    // Store Restaurants Count\n    uint public restaurantsCount;\n    // uint256 public datechecker = block.timestamp; \n\n    // added Restaurant event\n    event addedEvent (\n        uint indexed _restaurantId\n    );\n\n    // added Restaurant event\n    event bookedEvent (\n        uint indexed _restaurantId\n    );\n\n    constructor () public {\n        // addRestaurant(\"Restaurant 1\", \"Addis Ababa\", \"Bole Road\", \"06:00\", \"20:00\", 80);\n        // addRestaurant(\"Restaurant 2\", \"Addis Ababa\", \"Belay Zeleke St.\", \"06:00\", \"21:00\", 120);\n        // addRestaurant(\"Restaurant 3\", \"Addis Ababa\", \"Churchill Road\", \"07:00\", \"22:00\", 40);\n        // addRestaurant(\"Restaurant 4\", \"Addis Ababa\", \"Tayitu Road\", \"07:00\", \"22:00\", 60);\n        // addRestaurant(\"Restaurant 5\", \"Addis Ababa\", \"Bole Road\", \"06:00\", \"21:00\", 75);\n    }\n\n    mapping(address => uint) public checking;\n    function checker (uint num) public {\n        checking[msg.sender] = num;\n    }\n\n    mapping(address => string) public schecking;\n    function stringChecker (string memory n) public {\n        schecking[msg.sender] = n;\n    }\n\n    function addRestaurant (string memory _name, string memory _city, string memory _adress, string memory _opensAt, string memory _closesAt, uint _totalSeats) public {\n        // require that they haven't registered before\n        require(restaurantOwners[msg.sender] > 0 ? restaurantOwners[msg.sender] != restaurantsCount : restaurantOwners[msg.sender] >= 0);\n        \n        // Register the restaurant's data\n        restaurantsCount ++;\n        restaurants[restaurantsCount] = Restaurant(restaurantsCount, _name, _city, _adress, _opensAt, _closesAt, _totalSeats, 0);\n\n        // Record that the restaurant owner has registered\n        restaurantOwners[msg.sender] = restaurantsCount;\n\n        // trigger restaurant added event\n        emit addedEvent(restaurantsCount);\n    }\n\n    function stringToTime(string memory s) private returns (uint result) {\n        bytes memory b = bytes(s);\n        uint i;\n        result = 0;\n        for (i = 0; i < 2; i++) {\n            uint c = uint(uint8(b[i]));\n            if (c >= 48 && c <= 57) {\n                result = result * 10 + (c - 48);\n            }\n        }\n    }\n\n    uint public opensTime;\n    uint public closesTime;\n\n    // bool public you;\n    function book (uint _restaurantId, string memory _username, string memory _useremail, uint _timeLimit, uint _startTime, uint _endTime, uint _guestCount) public {\n        // require that they haven't booked within 24 hours\n        // require(!users[msg.sender]);\n\n        opensTime = stringToTime(restaurants[_restaurantId].opensAt);\n        closesTime = stringToTime(restaurants[_restaurantId].closesAt);\n\n        // require that the booked table gets reserved within the time frame of the restaurant's working hours\n        require(opensTime <= _startTime && _endTime <= closesTime);\n\n        // require a valid restaurant\n        require(_restaurantId > 0 && _restaurantId <= restaurantsCount);\n        \n        /// require valid guests in a restaurant\n        require(_guestCount < restaurants[_restaurantId].totalSeats && _guestCount > 0);\n\n        // record that voter has booked\n        // users[msg.sender] = true;\n\n        User(_username, _useremail, _timeLimit, _startTime, _endTime, _guestCount);\n\n        // update restaurant's guest count and totalSeats\n        restaurants[_restaurantId].guestCount = _guestCount;\n        restaurants[_restaurantId].totalSeats -= restaurants[_restaurantId].guestCount;\n\n        // trigger restaurant added event\n        emit bookedEvent(_restaurantId);\n    }\n}\n\n//  Lets define the rules here:\n//  Restaurant owners register their data to be displayed to users\n//  Users book:\n//      Must book within the working hour of the restaurant\n//      Must not book again within 24 hours of boooking at the same restaurant\n//      Must provide guest numbers below the number of guests available\n//      Must specify the date and time of the booking of the dining table\n\n",
  "sourcePath": "/home/lowin/Documents/dining_table_reservation/contracts/Reservation.sol",
  "compiler": {
    "name": "solc",
    "version": "0.5.16+commit.9c3226ce.Emscripten.clang"
  },
  "schemaVersion": "3.4.4",
  "updatedAt": "2022-01-14T15:59:16.589Z",
  "networkType": "ethereum",
  "devdoc": {
    "methods": {}
  },
  "userdoc": {
    "methods": {}
  }
}